{
	"data": {
		"bytecode": {
			"linkReferences": {},
			"object": "6080604052336000806101000a81548173ffffffffffffffffffffffffffffffffffffffff021916908373ffffffffffffffffffffffffffffffffffffffff160217905550610c78806100536000396000f3fe608060405234801561001057600080fd5b50600436106100415760003560e01c80635fe33d80146100465780637f9d7f4a14610062578063f7fcb10d14610080575b600080fd5b610060600480360381019061005b9190610949565b61009c565b005b61006a6101a3565b6040516100779190610ab1565b60405180910390f35b61009a60048036038101906100959190610ad3565b6104e4565b005b606060016040518061010001604052808881526020018781526020018681526020018581526020018481526020018381526020018381526020017fffffffffffffffffffffffffffffffffffffffffffffffffffffffffffffffff8152509080600181540180825580915050600190039060005260206000209060080201600090919091909150600082015181600001556020820151816001015560408201518160020155606082015181600301556080820151816004015560a08201518160050190805190602001906101719291906108a4565b5060c082015181600601908051906020019061018e9291906108a4565b5060e082015181600701555050505050505050565b60606101ad610575565b6101b5610577565b60005b600280549050811015610208576000600382815481106101db576101da610b26565b5b9060005260206000200154036101f5576101f481610688565b5b808061020090610b84565b9150506101b8565b5060005b6001805490508110156104725760006001828154811061022f5761022e610b26565b5b906000526020600020906008020160060180548060200260200160405190810160405280929190818152602001828054801561028a57602002820191906000526020600020905b815481526020019060010190808311610276575b5050505050905060008151111561045e576000816000815181106102b1576102b0610b26565b5b6020026020010151905060006102c7848361071a565b9050600183510361035157600460405180604001604052808481526020018681525090806001815401808255809150506001900390600052602060002090600202016000909190919091506000820151816000015560208201518160010155505060016003838154811061033e5761033d610b26565b5b906000526020600020018190555061045b565b60005b83518110156103df57816103828686848151811061037557610374610b26565b5b602002602001015161071a565b10156103cc5783818151811061039b5761039a610b26565b5b602002602001015192506103c9858583815181106103bc576103bb610b26565b5b602002602001015161071a565b91505b80806103d790610b84565b915050610354565b50600460405180604001604052808481526020018681525090806001815401808255809150506001900390600052602060002090600202016000909190919091506000820151816000015560208201518160010155505060016003838154811061044c5761044b610b26565b5b90600052602060002001819055505b50505b50808061046a90610b84565b91505061020c565b506004805480602002602001604051908101604052809291908181526020016000905b828210156104db57838290600052602060002090600202016040518060400160405290816000820154815260200160018201548152505081526020019060010190610495565b50505050905090565b606060026040518060800160405280868152602001848152602001858152602001838152509080600181540180825580915050600190039060005260206000209060040201600090919091909150600082015181600001556020820151816001015560408201518160020155606082015181600301908051906020019061056c9291906108a4565b50505050505050565b565b60005b60018054905081101561068557606060005b6002805490508110156105d5576105a38382610722565b8282815181106105b6576105b5610b26565b5b60200260200101818152505080806105cd90610b84565b91505061058c565b5060005b81518110156106705760006105ed836107da565b90506002848154811061060357610602610b26565b5b906000526020600020906004020160030181908060018154018082558091505060019003906000526020600020016000909190919091505560008382815181106106505761064f610b26565b5b60200260200101818152505050808061066890610b84565b9150506105d9565b5050808061067d90610b84565b91505061057a565b50565b60006002828154811061069e5761069d610b26565b5b90600052602060002090600402016003016000815481106106c2576106c1610b26565b5b9060005260206000200154905081600182815481106106e4576106e3610b26565b5b906000526020600020906008020160060160008154811061070857610707610b26565b5b90600052602060002001819055505050565b600092915050565b6000806001848154811061073957610738610b26565b5b906000526020600020906008020160010154905060006107a36002858154811061076657610765610b26565b5b9060005260206000209060040201600101546002868154811061078c5761078b610b26565b5b906000526020600020906004020160020154610846565b905060006107b08561089d565b905060008183856107c19190610bcc565b6107cb9190610bcc565b90508094505050505092915050565b60008060005b835181101561083c578381815181106107fc576107fb610b26565b5b602002602001015184838151811061081757610816610b26565b5b60200260200101511015610829578091505b808061083490610b84565b9150506107e0565b5080915050919050565b60006002836108559190610bcc565b92506002826108649190610bcc565b91506001826108739190610bcc565b600184856108819190610bcc565b61088b9190610bcc565b6108959190610c0e565b905092915050565b6000919050565b8280548282559060005260206000209081019282156108e0579160200282015b828111156108df5782518255916020019190600101906108c4565b5b5090506108ed91906108f1565b5090565b5b8082111561090a5760008160009055506001016108f2565b5090565b600080fd5b6000819050919050565b61092681610913565b811461093157600080fd5b50565b6000813590506109438161091d565b92915050565b600080600080600060a086880312156109655761096461090e565b5b600061097388828901610934565b955050602061098488828901610934565b945050604061099588828901610934565b93505060606109a688828901610934565b92505060806109b788828901610934565b9150509295509295909350565b600081519050919050565b600082825260208201905092915050565b6000819050602082019050919050565b6109f981610913565b82525050565b604082016000820151610a1560008501826109f0565b506020820151610a2860208501826109f0565b50505050565b6000610a3a83836109ff565b60408301905092915050565b6000602082019050919050565b6000610a5e826109c4565b610a6881856109cf565b9350610a73836109e0565b8060005b83811015610aa4578151610a8b8882610a2e565b9750610a9683610a46565b925050600181019050610a77565b5085935050505092915050565b60006020820190508181036000830152610acb8184610a53565b905092915050565b600080600060608486031215610aec57610aeb61090e565b5b6000610afa86828701610934565b9350506020610b0b86828701610934565b9250506040610b1c86828701610934565b9150509250925092565b7f4e487b7100000000000000000000000000000000000000000000000000000000600052603260045260246000fd5b7f4e487b7100000000000000000000000000000000000000000000000000000000600052601160045260246000fd5b6000610b8f82610913565b91507fffffffffffffffffffffffffffffffffffffffffffffffffffffffffffffffff8203610bc157610bc0610b55565b5b600182019050919050565b6000610bd782610913565b9150610be283610913565b9250828202610bf081610913565b91508282048414831517610c0757610c06610b55565b5b5092915050565b6000610c1982610913565b9150610c2483610913565b9250828203905081811115610c3c57610c3b610b55565b5b9291505056fea26469706673582212201c0a2b86ff6ba823e31a4d29b273ed6238a7c2b0d8c542692466f410ab5537db64736f6c63430008110033",
			"opcodes": "PUSH1 0x80 PUSH1 0x40 MSTORE CALLER PUSH1 0x0 DUP1 PUSH2 0x100 EXP DUP2 SLOAD DUP2 PUSH20 0xFFFFFFFFFFFFFFFFFFFFFFFFFFFFFFFFFFFFFFFF MUL NOT AND SWAP1 DUP4 PUSH20 0xFFFFFFFFFFFFFFFFFFFFFFFFFFFFFFFFFFFFFFFF AND MUL OR SWAP1 SSTORE POP PUSH2 0xC78 DUP1 PUSH2 0x53 PUSH1 0x0 CODECOPY PUSH1 0x0 RETURN INVALID PUSH1 0x80 PUSH1 0x40 MSTORE CALLVALUE DUP1 ISZERO PUSH2 0x10 JUMPI PUSH1 0x0 DUP1 REVERT JUMPDEST POP PUSH1 0x4 CALLDATASIZE LT PUSH2 0x41 JUMPI PUSH1 0x0 CALLDATALOAD PUSH1 0xE0 SHR DUP1 PUSH4 0x5FE33D80 EQ PUSH2 0x46 JUMPI DUP1 PUSH4 0x7F9D7F4A EQ PUSH2 0x62 JUMPI DUP1 PUSH4 0xF7FCB10D EQ PUSH2 0x80 JUMPI JUMPDEST PUSH1 0x0 DUP1 REVERT JUMPDEST PUSH2 0x60 PUSH1 0x4 DUP1 CALLDATASIZE SUB DUP2 ADD SWAP1 PUSH2 0x5B SWAP2 SWAP1 PUSH2 0x949 JUMP JUMPDEST PUSH2 0x9C JUMP JUMPDEST STOP JUMPDEST PUSH2 0x6A PUSH2 0x1A3 JUMP JUMPDEST PUSH1 0x40 MLOAD PUSH2 0x77 SWAP2 SWAP1 PUSH2 0xAB1 JUMP JUMPDEST PUSH1 0x40 MLOAD DUP1 SWAP2 SUB SWAP1 RETURN JUMPDEST PUSH2 0x9A PUSH1 0x4 DUP1 CALLDATASIZE SUB DUP2 ADD SWAP1 PUSH2 0x95 SWAP2 SWAP1 PUSH2 0xAD3 JUMP JUMPDEST PUSH2 0x4E4 JUMP JUMPDEST STOP JUMPDEST PUSH1 0x60 PUSH1 0x1 PUSH1 0x40 MLOAD DUP1 PUSH2 0x100 ADD PUSH1 0x40 MSTORE DUP1 DUP9 DUP2 MSTORE PUSH1 0x20 ADD DUP8 DUP2 MSTORE PUSH1 0x20 ADD DUP7 DUP2 MSTORE PUSH1 0x20 ADD DUP6 DUP2 MSTORE PUSH1 0x20 ADD DUP5 DUP2 MSTORE PUSH1 0x20 ADD DUP4 DUP2 MSTORE PUSH1 0x20 ADD DUP4 DUP2 MSTORE PUSH1 0x20 ADD PUSH32 0xFFFFFFFFFFFFFFFFFFFFFFFFFFFFFFFFFFFFFFFFFFFFFFFFFFFFFFFFFFFFFFFF DUP2 MSTORE POP SWAP1 DUP1 PUSH1 0x1 DUP2 SLOAD ADD DUP1 DUP3 SSTORE DUP1 SWAP2 POP POP PUSH1 0x1 SWAP1 SUB SWAP1 PUSH1 0x0 MSTORE PUSH1 0x20 PUSH1 0x0 KECCAK256 SWAP1 PUSH1 0x8 MUL ADD PUSH1 0x0 SWAP1 SWAP2 SWAP1 SWAP2 SWAP1 SWAP2 POP PUSH1 0x0 DUP3 ADD MLOAD DUP2 PUSH1 0x0 ADD SSTORE PUSH1 0x20 DUP3 ADD MLOAD DUP2 PUSH1 0x1 ADD SSTORE PUSH1 0x40 DUP3 ADD MLOAD DUP2 PUSH1 0x2 ADD SSTORE PUSH1 0x60 DUP3 ADD MLOAD DUP2 PUSH1 0x3 ADD SSTORE PUSH1 0x80 DUP3 ADD MLOAD DUP2 PUSH1 0x4 ADD SSTORE PUSH1 0xA0 DUP3 ADD MLOAD DUP2 PUSH1 0x5 ADD SWAP1 DUP1 MLOAD SWAP1 PUSH1 0x20 ADD SWAP1 PUSH2 0x171 SWAP3 SWAP2 SWAP1 PUSH2 0x8A4 JUMP JUMPDEST POP PUSH1 0xC0 DUP3 ADD MLOAD DUP2 PUSH1 0x6 ADD SWAP1 DUP1 MLOAD SWAP1 PUSH1 0x20 ADD SWAP1 PUSH2 0x18E SWAP3 SWAP2 SWAP1 PUSH2 0x8A4 JUMP JUMPDEST POP PUSH1 0xE0 DUP3 ADD MLOAD DUP2 PUSH1 0x7 ADD SSTORE POP POP POP POP POP POP POP POP JUMP JUMPDEST PUSH1 0x60 PUSH2 0x1AD PUSH2 0x575 JUMP JUMPDEST PUSH2 0x1B5 PUSH2 0x577 JUMP JUMPDEST PUSH1 0x0 JUMPDEST PUSH1 0x2 DUP1 SLOAD SWAP1 POP DUP2 LT ISZERO PUSH2 0x208 JUMPI PUSH1 0x0 PUSH1 0x3 DUP3 DUP2 SLOAD DUP2 LT PUSH2 0x1DB JUMPI PUSH2 0x1DA PUSH2 0xB26 JUMP JUMPDEST JUMPDEST SWAP1 PUSH1 0x0 MSTORE PUSH1 0x20 PUSH1 0x0 KECCAK256 ADD SLOAD SUB PUSH2 0x1F5 JUMPI PUSH2 0x1F4 DUP2 PUSH2 0x688 JUMP JUMPDEST JUMPDEST DUP1 DUP1 PUSH2 0x200 SWAP1 PUSH2 0xB84 JUMP JUMPDEST SWAP2 POP POP PUSH2 0x1B8 JUMP JUMPDEST POP PUSH1 0x0 JUMPDEST PUSH1 0x1 DUP1 SLOAD SWAP1 POP DUP2 LT ISZERO PUSH2 0x472 JUMPI PUSH1 0x0 PUSH1 0x1 DUP3 DUP2 SLOAD DUP2 LT PUSH2 0x22F JUMPI PUSH2 0x22E PUSH2 0xB26 JUMP JUMPDEST JUMPDEST SWAP1 PUSH1 0x0 MSTORE PUSH1 0x20 PUSH1 0x0 KECCAK256 SWAP1 PUSH1 0x8 MUL ADD PUSH1 0x6 ADD DUP1 SLOAD DUP1 PUSH1 0x20 MUL PUSH1 0x20 ADD PUSH1 0x40 MLOAD SWAP1 DUP2 ADD PUSH1 0x40 MSTORE DUP1 SWAP3 SWAP2 SWAP1 DUP2 DUP2 MSTORE PUSH1 0x20 ADD DUP3 DUP1 SLOAD DUP1 ISZERO PUSH2 0x28A JUMPI PUSH1 0x20 MUL DUP3 ADD SWAP2 SWAP1 PUSH1 0x0 MSTORE PUSH1 0x20 PUSH1 0x0 KECCAK256 SWAP1 JUMPDEST DUP2 SLOAD DUP2 MSTORE PUSH1 0x20 ADD SWAP1 PUSH1 0x1 ADD SWAP1 DUP1 DUP4 GT PUSH2 0x276 JUMPI JUMPDEST POP POP POP POP POP SWAP1 POP PUSH1 0x0 DUP2 MLOAD GT ISZERO PUSH2 0x45E JUMPI PUSH1 0x0 DUP2 PUSH1 0x0 DUP2 MLOAD DUP2 LT PUSH2 0x2B1 JUMPI PUSH2 0x2B0 PUSH2 0xB26 JUMP JUMPDEST JUMPDEST PUSH1 0x20 MUL PUSH1 0x20 ADD ADD MLOAD SWAP1 POP PUSH1 0x0 PUSH2 0x2C7 DUP5 DUP4 PUSH2 0x71A JUMP JUMPDEST SWAP1 POP PUSH1 0x1 DUP4 MLOAD SUB PUSH2 0x351 JUMPI PUSH1 0x4 PUSH1 0x40 MLOAD DUP1 PUSH1 0x40 ADD PUSH1 0x40 MSTORE DUP1 DUP5 DUP2 MSTORE PUSH1 0x20 ADD DUP7 DUP2 MSTORE POP SWAP1 DUP1 PUSH1 0x1 DUP2 SLOAD ADD DUP1 DUP3 SSTORE DUP1 SWAP2 POP POP PUSH1 0x1 SWAP1 SUB SWAP1 PUSH1 0x0 MSTORE PUSH1 0x20 PUSH1 0x0 KECCAK256 SWAP1 PUSH1 0x2 MUL ADD PUSH1 0x0 SWAP1 SWAP2 SWAP1 SWAP2 SWAP1 SWAP2 POP PUSH1 0x0 DUP3 ADD MLOAD DUP2 PUSH1 0x0 ADD SSTORE PUSH1 0x20 DUP3 ADD MLOAD DUP2 PUSH1 0x1 ADD SSTORE POP POP PUSH1 0x1 PUSH1 0x3 DUP4 DUP2 SLOAD DUP2 LT PUSH2 0x33E JUMPI PUSH2 0x33D PUSH2 0xB26 JUMP JUMPDEST JUMPDEST SWAP1 PUSH1 0x0 MSTORE PUSH1 0x20 PUSH1 0x0 KECCAK256 ADD DUP2 SWAP1 SSTORE POP PUSH2 0x45B JUMP JUMPDEST PUSH1 0x0 JUMPDEST DUP4 MLOAD DUP2 LT ISZERO PUSH2 0x3DF JUMPI DUP2 PUSH2 0x382 DUP7 DUP7 DUP5 DUP2 MLOAD DUP2 LT PUSH2 0x375 JUMPI PUSH2 0x374 PUSH2 0xB26 JUMP JUMPDEST JUMPDEST PUSH1 0x20 MUL PUSH1 0x20 ADD ADD MLOAD PUSH2 0x71A JUMP JUMPDEST LT ISZERO PUSH2 0x3CC JUMPI DUP4 DUP2 DUP2 MLOAD DUP2 LT PUSH2 0x39B JUMPI PUSH2 0x39A PUSH2 0xB26 JUMP JUMPDEST JUMPDEST PUSH1 0x20 MUL PUSH1 0x20 ADD ADD MLOAD SWAP3 POP PUSH2 0x3C9 DUP6 DUP6 DUP4 DUP2 MLOAD DUP2 LT PUSH2 0x3BC JUMPI PUSH2 0x3BB PUSH2 0xB26 JUMP JUMPDEST JUMPDEST PUSH1 0x20 MUL PUSH1 0x20 ADD ADD MLOAD PUSH2 0x71A JUMP JUMPDEST SWAP2 POP JUMPDEST DUP1 DUP1 PUSH2 0x3D7 SWAP1 PUSH2 0xB84 JUMP JUMPDEST SWAP2 POP POP PUSH2 0x354 JUMP JUMPDEST POP PUSH1 0x4 PUSH1 0x40 MLOAD DUP1 PUSH1 0x40 ADD PUSH1 0x40 MSTORE DUP1 DUP5 DUP2 MSTORE PUSH1 0x20 ADD DUP7 DUP2 MSTORE POP SWAP1 DUP1 PUSH1 0x1 DUP2 SLOAD ADD DUP1 DUP3 SSTORE DUP1 SWAP2 POP POP PUSH1 0x1 SWAP1 SUB SWAP1 PUSH1 0x0 MSTORE PUSH1 0x20 PUSH1 0x0 KECCAK256 SWAP1 PUSH1 0x2 MUL ADD PUSH1 0x0 SWAP1 SWAP2 SWAP1 SWAP2 SWAP1 SWAP2 POP PUSH1 0x0 DUP3 ADD MLOAD DUP2 PUSH1 0x0 ADD SSTORE PUSH1 0x20 DUP3 ADD MLOAD DUP2 PUSH1 0x1 ADD SSTORE POP POP PUSH1 0x1 PUSH1 0x3 DUP4 DUP2 SLOAD DUP2 LT PUSH2 0x44C JUMPI PUSH2 0x44B PUSH2 0xB26 JUMP JUMPDEST JUMPDEST SWAP1 PUSH1 0x0 MSTORE PUSH1 0x20 PUSH1 0x0 KECCAK256 ADD DUP2 SWAP1 SSTORE POP JUMPDEST POP POP JUMPDEST POP DUP1 DUP1 PUSH2 0x46A SWAP1 PUSH2 0xB84 JUMP JUMPDEST SWAP2 POP POP PUSH2 0x20C JUMP JUMPDEST POP PUSH1 0x4 DUP1 SLOAD DUP1 PUSH1 0x20 MUL PUSH1 0x20 ADD PUSH1 0x40 MLOAD SWAP1 DUP2 ADD PUSH1 0x40 MSTORE DUP1 SWAP3 SWAP2 SWAP1 DUP2 DUP2 MSTORE PUSH1 0x20 ADD PUSH1 0x0 SWAP1 JUMPDEST DUP3 DUP3 LT ISZERO PUSH2 0x4DB JUMPI DUP4 DUP3 SWAP1 PUSH1 0x0 MSTORE PUSH1 0x20 PUSH1 0x0 KECCAK256 SWAP1 PUSH1 0x2 MUL ADD PUSH1 0x40 MLOAD DUP1 PUSH1 0x40 ADD PUSH1 0x40 MSTORE SWAP1 DUP2 PUSH1 0x0 DUP3 ADD SLOAD DUP2 MSTORE PUSH1 0x20 ADD PUSH1 0x1 DUP3 ADD SLOAD DUP2 MSTORE POP POP DUP2 MSTORE PUSH1 0x20 ADD SWAP1 PUSH1 0x1 ADD SWAP1 PUSH2 0x495 JUMP JUMPDEST POP POP POP POP SWAP1 POP SWAP1 JUMP JUMPDEST PUSH1 0x60 PUSH1 0x2 PUSH1 0x40 MLOAD DUP1 PUSH1 0x80 ADD PUSH1 0x40 MSTORE DUP1 DUP7 DUP2 MSTORE PUSH1 0x20 ADD DUP5 DUP2 MSTORE PUSH1 0x20 ADD DUP6 DUP2 MSTORE PUSH1 0x20 ADD DUP4 DUP2 MSTORE POP SWAP1 DUP1 PUSH1 0x1 DUP2 SLOAD ADD DUP1 DUP3 SSTORE DUP1 SWAP2 POP POP PUSH1 0x1 SWAP1 SUB SWAP1 PUSH1 0x0 MSTORE PUSH1 0x20 PUSH1 0x0 KECCAK256 SWAP1 PUSH1 0x4 MUL ADD PUSH1 0x0 SWAP1 SWAP2 SWAP1 SWAP2 SWAP1 SWAP2 POP PUSH1 0x0 DUP3 ADD MLOAD DUP2 PUSH1 0x0 ADD SSTORE PUSH1 0x20 DUP3 ADD MLOAD DUP2 PUSH1 0x1 ADD SSTORE PUSH1 0x40 DUP3 ADD MLOAD DUP2 PUSH1 0x2 ADD SSTORE PUSH1 0x60 DUP3 ADD MLOAD DUP2 PUSH1 0x3 ADD SWAP1 DUP1 MLOAD SWAP1 PUSH1 0x20 ADD SWAP1 PUSH2 0x56C SWAP3 SWAP2 SWAP1 PUSH2 0x8A4 JUMP JUMPDEST POP POP POP POP POP POP POP JUMP JUMPDEST JUMP JUMPDEST PUSH1 0x0 JUMPDEST PUSH1 0x1 DUP1 SLOAD SWAP1 POP DUP2 LT ISZERO PUSH2 0x685 JUMPI PUSH1 0x60 PUSH1 0x0 JUMPDEST PUSH1 0x2 DUP1 SLOAD SWAP1 POP DUP2 LT ISZERO PUSH2 0x5D5 JUMPI PUSH2 0x5A3 DUP4 DUP3 PUSH2 0x722 JUMP JUMPDEST DUP3 DUP3 DUP2 MLOAD DUP2 LT PUSH2 0x5B6 JUMPI PUSH2 0x5B5 PUSH2 0xB26 JUMP JUMPDEST JUMPDEST PUSH1 0x20 MUL PUSH1 0x20 ADD ADD DUP2 DUP2 MSTORE POP POP DUP1 DUP1 PUSH2 0x5CD SWAP1 PUSH2 0xB84 JUMP JUMPDEST SWAP2 POP POP PUSH2 0x58C JUMP JUMPDEST POP PUSH1 0x0 JUMPDEST DUP2 MLOAD DUP2 LT ISZERO PUSH2 0x670 JUMPI PUSH1 0x0 PUSH2 0x5ED DUP4 PUSH2 0x7DA JUMP JUMPDEST SWAP1 POP PUSH1 0x2 DUP5 DUP2 SLOAD DUP2 LT PUSH2 0x603 JUMPI PUSH2 0x602 PUSH2 0xB26 JUMP JUMPDEST JUMPDEST SWAP1 PUSH1 0x0 MSTORE PUSH1 0x20 PUSH1 0x0 KECCAK256 SWAP1 PUSH1 0x4 MUL ADD PUSH1 0x3 ADD DUP2 SWAP1 DUP1 PUSH1 0x1 DUP2 SLOAD ADD DUP1 DUP3 SSTORE DUP1 SWAP2 POP POP PUSH1 0x1 SWAP1 SUB SWAP1 PUSH1 0x0 MSTORE PUSH1 0x20 PUSH1 0x0 KECCAK256 ADD PUSH1 0x0 SWAP1 SWAP2 SWAP1 SWAP2 SWAP1 SWAP2 POP SSTORE PUSH1 0x0 DUP4 DUP3 DUP2 MLOAD DUP2 LT PUSH2 0x650 JUMPI PUSH2 0x64F PUSH2 0xB26 JUMP JUMPDEST JUMPDEST PUSH1 0x20 MUL PUSH1 0x20 ADD ADD DUP2 DUP2 MSTORE POP POP POP DUP1 DUP1 PUSH2 0x668 SWAP1 PUSH2 0xB84 JUMP JUMPDEST SWAP2 POP POP PUSH2 0x5D9 JUMP JUMPDEST POP POP DUP1 DUP1 PUSH2 0x67D SWAP1 PUSH2 0xB84 JUMP JUMPDEST SWAP2 POP POP PUSH2 0x57A JUMP JUMPDEST POP JUMP JUMPDEST PUSH1 0x0 PUSH1 0x2 DUP3 DUP2 SLOAD DUP2 LT PUSH2 0x69E JUMPI PUSH2 0x69D PUSH2 0xB26 JUMP JUMPDEST JUMPDEST SWAP1 PUSH1 0x0 MSTORE PUSH1 0x20 PUSH1 0x0 KECCAK256 SWAP1 PUSH1 0x4 MUL ADD PUSH1 0x3 ADD PUSH1 0x0 DUP2 SLOAD DUP2 LT PUSH2 0x6C2 JUMPI PUSH2 0x6C1 PUSH2 0xB26 JUMP JUMPDEST JUMPDEST SWAP1 PUSH1 0x0 MSTORE PUSH1 0x20 PUSH1 0x0 KECCAK256 ADD SLOAD SWAP1 POP DUP2 PUSH1 0x1 DUP3 DUP2 SLOAD DUP2 LT PUSH2 0x6E4 JUMPI PUSH2 0x6E3 PUSH2 0xB26 JUMP JUMPDEST JUMPDEST SWAP1 PUSH1 0x0 MSTORE PUSH1 0x20 PUSH1 0x0 KECCAK256 SWAP1 PUSH1 0x8 MUL ADD PUSH1 0x6 ADD PUSH1 0x0 DUP2 SLOAD DUP2 LT PUSH2 0x708 JUMPI PUSH2 0x707 PUSH2 0xB26 JUMP JUMPDEST JUMPDEST SWAP1 PUSH1 0x0 MSTORE PUSH1 0x20 PUSH1 0x0 KECCAK256 ADD DUP2 SWAP1 SSTORE POP POP POP JUMP JUMPDEST PUSH1 0x0 SWAP3 SWAP2 POP POP JUMP JUMPDEST PUSH1 0x0 DUP1 PUSH1 0x1 DUP5 DUP2 SLOAD DUP2 LT PUSH2 0x739 JUMPI PUSH2 0x738 PUSH2 0xB26 JUMP JUMPDEST JUMPDEST SWAP1 PUSH1 0x0 MSTORE PUSH1 0x20 PUSH1 0x0 KECCAK256 SWAP1 PUSH1 0x8 MUL ADD PUSH1 0x1 ADD SLOAD SWAP1 POP PUSH1 0x0 PUSH2 0x7A3 PUSH1 0x2 DUP6 DUP2 SLOAD DUP2 LT PUSH2 0x766 JUMPI PUSH2 0x765 PUSH2 0xB26 JUMP JUMPDEST JUMPDEST SWAP1 PUSH1 0x0 MSTORE PUSH1 0x20 PUSH1 0x0 KECCAK256 SWAP1 PUSH1 0x4 MUL ADD PUSH1 0x1 ADD SLOAD PUSH1 0x2 DUP7 DUP2 SLOAD DUP2 LT PUSH2 0x78C JUMPI PUSH2 0x78B PUSH2 0xB26 JUMP JUMPDEST JUMPDEST SWAP1 PUSH1 0x0 MSTORE PUSH1 0x20 PUSH1 0x0 KECCAK256 SWAP1 PUSH1 0x4 MUL ADD PUSH1 0x2 ADD SLOAD PUSH2 0x846 JUMP JUMPDEST SWAP1 POP PUSH1 0x0 PUSH2 0x7B0 DUP6 PUSH2 0x89D JUMP JUMPDEST SWAP1 POP PUSH1 0x0 DUP2 DUP4 DUP6 PUSH2 0x7C1 SWAP2 SWAP1 PUSH2 0xBCC JUMP JUMPDEST PUSH2 0x7CB SWAP2 SWAP1 PUSH2 0xBCC JUMP JUMPDEST SWAP1 POP DUP1 SWAP5 POP POP POP POP POP SWAP3 SWAP2 POP POP JUMP JUMPDEST PUSH1 0x0 DUP1 PUSH1 0x0 JUMPDEST DUP4 MLOAD DUP2 LT ISZERO PUSH2 0x83C JUMPI DUP4 DUP2 DUP2 MLOAD DUP2 LT PUSH2 0x7FC JUMPI PUSH2 0x7FB PUSH2 0xB26 JUMP JUMPDEST JUMPDEST PUSH1 0x20 MUL PUSH1 0x20 ADD ADD MLOAD DUP5 DUP4 DUP2 MLOAD DUP2 LT PUSH2 0x817 JUMPI PUSH2 0x816 PUSH2 0xB26 JUMP JUMPDEST JUMPDEST PUSH1 0x20 MUL PUSH1 0x20 ADD ADD MLOAD LT ISZERO PUSH2 0x829 JUMPI DUP1 SWAP2 POP JUMPDEST DUP1 DUP1 PUSH2 0x834 SWAP1 PUSH2 0xB84 JUMP JUMPDEST SWAP2 POP POP PUSH2 0x7E0 JUMP JUMPDEST POP DUP1 SWAP2 POP POP SWAP2 SWAP1 POP JUMP JUMPDEST PUSH1 0x0 PUSH1 0x2 DUP4 PUSH2 0x855 SWAP2 SWAP1 PUSH2 0xBCC JUMP JUMPDEST SWAP3 POP PUSH1 0x2 DUP3 PUSH2 0x864 SWAP2 SWAP1 PUSH2 0xBCC JUMP JUMPDEST SWAP2 POP PUSH1 0x1 DUP3 PUSH2 0x873 SWAP2 SWAP1 PUSH2 0xBCC JUMP JUMPDEST PUSH1 0x1 DUP5 DUP6 PUSH2 0x881 SWAP2 SWAP1 PUSH2 0xBCC JUMP JUMPDEST PUSH2 0x88B SWAP2 SWAP1 PUSH2 0xBCC JUMP JUMPDEST PUSH2 0x895 SWAP2 SWAP1 PUSH2 0xC0E JUMP JUMPDEST SWAP1 POP SWAP3 SWAP2 POP POP JUMP JUMPDEST PUSH1 0x0 SWAP2 SWAP1 POP JUMP JUMPDEST DUP3 DUP1 SLOAD DUP3 DUP3 SSTORE SWAP1 PUSH1 0x0 MSTORE PUSH1 0x20 PUSH1 0x0 KECCAK256 SWAP1 DUP2 ADD SWAP3 DUP3 ISZERO PUSH2 0x8E0 JUMPI SWAP2 PUSH1 0x20 MUL DUP3 ADD JUMPDEST DUP3 DUP2 GT ISZERO PUSH2 0x8DF JUMPI DUP3 MLOAD DUP3 SSTORE SWAP2 PUSH1 0x20 ADD SWAP2 SWAP1 PUSH1 0x1 ADD SWAP1 PUSH2 0x8C4 JUMP JUMPDEST JUMPDEST POP SWAP1 POP PUSH2 0x8ED SWAP2 SWAP1 PUSH2 0x8F1 JUMP JUMPDEST POP SWAP1 JUMP JUMPDEST JUMPDEST DUP1 DUP3 GT ISZERO PUSH2 0x90A JUMPI PUSH1 0x0 DUP2 PUSH1 0x0 SWAP1 SSTORE POP PUSH1 0x1 ADD PUSH2 0x8F2 JUMP JUMPDEST POP SWAP1 JUMP JUMPDEST PUSH1 0x0 DUP1 REVERT JUMPDEST PUSH1 0x0 DUP2 SWAP1 POP SWAP2 SWAP1 POP JUMP JUMPDEST PUSH2 0x926 DUP2 PUSH2 0x913 JUMP JUMPDEST DUP2 EQ PUSH2 0x931 JUMPI PUSH1 0x0 DUP1 REVERT JUMPDEST POP JUMP JUMPDEST PUSH1 0x0 DUP2 CALLDATALOAD SWAP1 POP PUSH2 0x943 DUP2 PUSH2 0x91D JUMP JUMPDEST SWAP3 SWAP2 POP POP JUMP JUMPDEST PUSH1 0x0 DUP1 PUSH1 0x0 DUP1 PUSH1 0x0 PUSH1 0xA0 DUP7 DUP9 SUB SLT ISZERO PUSH2 0x965 JUMPI PUSH2 0x964 PUSH2 0x90E JUMP JUMPDEST JUMPDEST PUSH1 0x0 PUSH2 0x973 DUP9 DUP3 DUP10 ADD PUSH2 0x934 JUMP JUMPDEST SWAP6 POP POP PUSH1 0x20 PUSH2 0x984 DUP9 DUP3 DUP10 ADD PUSH2 0x934 JUMP JUMPDEST SWAP5 POP POP PUSH1 0x40 PUSH2 0x995 DUP9 DUP3 DUP10 ADD PUSH2 0x934 JUMP JUMPDEST SWAP4 POP POP PUSH1 0x60 PUSH2 0x9A6 DUP9 DUP3 DUP10 ADD PUSH2 0x934 JUMP JUMPDEST SWAP3 POP POP PUSH1 0x80 PUSH2 0x9B7 DUP9 DUP3 DUP10 ADD PUSH2 0x934 JUMP JUMPDEST SWAP2 POP POP SWAP3 SWAP6 POP SWAP3 SWAP6 SWAP1 SWAP4 POP JUMP JUMPDEST PUSH1 0x0 DUP2 MLOAD SWAP1 POP SWAP2 SWAP1 POP JUMP JUMPDEST PUSH1 0x0 DUP3 DUP3 MSTORE PUSH1 0x20 DUP3 ADD SWAP1 POP SWAP3 SWAP2 POP POP JUMP JUMPDEST PUSH1 0x0 DUP2 SWAP1 POP PUSH1 0x20 DUP3 ADD SWAP1 POP SWAP2 SWAP1 POP JUMP JUMPDEST PUSH2 0x9F9 DUP2 PUSH2 0x913 JUMP JUMPDEST DUP3 MSTORE POP POP JUMP JUMPDEST PUSH1 0x40 DUP3 ADD PUSH1 0x0 DUP3 ADD MLOAD PUSH2 0xA15 PUSH1 0x0 DUP6 ADD DUP3 PUSH2 0x9F0 JUMP JUMPDEST POP PUSH1 0x20 DUP3 ADD MLOAD PUSH2 0xA28 PUSH1 0x20 DUP6 ADD DUP3 PUSH2 0x9F0 JUMP JUMPDEST POP POP POP POP JUMP JUMPDEST PUSH1 0x0 PUSH2 0xA3A DUP4 DUP4 PUSH2 0x9FF JUMP JUMPDEST PUSH1 0x40 DUP4 ADD SWAP1 POP SWAP3 SWAP2 POP POP JUMP JUMPDEST PUSH1 0x0 PUSH1 0x20 DUP3 ADD SWAP1 POP SWAP2 SWAP1 POP JUMP JUMPDEST PUSH1 0x0 PUSH2 0xA5E DUP3 PUSH2 0x9C4 JUMP JUMPDEST PUSH2 0xA68 DUP2 DUP6 PUSH2 0x9CF JUMP JUMPDEST SWAP4 POP PUSH2 0xA73 DUP4 PUSH2 0x9E0 JUMP JUMPDEST DUP1 PUSH1 0x0 JUMPDEST DUP4 DUP2 LT ISZERO PUSH2 0xAA4 JUMPI DUP2 MLOAD PUSH2 0xA8B DUP9 DUP3 PUSH2 0xA2E JUMP JUMPDEST SWAP8 POP PUSH2 0xA96 DUP4 PUSH2 0xA46 JUMP JUMPDEST SWAP3 POP POP PUSH1 0x1 DUP2 ADD SWAP1 POP PUSH2 0xA77 JUMP JUMPDEST POP DUP6 SWAP4 POP POP POP POP SWAP3 SWAP2 POP POP JUMP JUMPDEST PUSH1 0x0 PUSH1 0x20 DUP3 ADD SWAP1 POP DUP2 DUP2 SUB PUSH1 0x0 DUP4 ADD MSTORE PUSH2 0xACB DUP2 DUP5 PUSH2 0xA53 JUMP JUMPDEST SWAP1 POP SWAP3 SWAP2 POP POP JUMP JUMPDEST PUSH1 0x0 DUP1 PUSH1 0x0 PUSH1 0x60 DUP5 DUP7 SUB SLT ISZERO PUSH2 0xAEC JUMPI PUSH2 0xAEB PUSH2 0x90E JUMP JUMPDEST JUMPDEST PUSH1 0x0 PUSH2 0xAFA DUP7 DUP3 DUP8 ADD PUSH2 0x934 JUMP JUMPDEST SWAP4 POP POP PUSH1 0x20 PUSH2 0xB0B DUP7 DUP3 DUP8 ADD PUSH2 0x934 JUMP JUMPDEST SWAP3 POP POP PUSH1 0x40 PUSH2 0xB1C DUP7 DUP3 DUP8 ADD PUSH2 0x934 JUMP JUMPDEST SWAP2 POP POP SWAP3 POP SWAP3 POP SWAP3 JUMP JUMPDEST PUSH32 0x4E487B7100000000000000000000000000000000000000000000000000000000 PUSH1 0x0 MSTORE PUSH1 0x32 PUSH1 0x4 MSTORE PUSH1 0x24 PUSH1 0x0 REVERT JUMPDEST PUSH32 0x4E487B7100000000000000000000000000000000000000000000000000000000 PUSH1 0x0 MSTORE PUSH1 0x11 PUSH1 0x4 MSTORE PUSH1 0x24 PUSH1 0x0 REVERT JUMPDEST PUSH1 0x0 PUSH2 0xB8F DUP3 PUSH2 0x913 JUMP JUMPDEST SWAP2 POP PUSH32 0xFFFFFFFFFFFFFFFFFFFFFFFFFFFFFFFFFFFFFFFFFFFFFFFFFFFFFFFFFFFFFFFF DUP3 SUB PUSH2 0xBC1 JUMPI PUSH2 0xBC0 PUSH2 0xB55 JUMP JUMPDEST JUMPDEST PUSH1 0x1 DUP3 ADD SWAP1 POP SWAP2 SWAP1 POP JUMP JUMPDEST PUSH1 0x0 PUSH2 0xBD7 DUP3 PUSH2 0x913 JUMP JUMPDEST SWAP2 POP PUSH2 0xBE2 DUP4 PUSH2 0x913 JUMP JUMPDEST SWAP3 POP DUP3 DUP3 MUL PUSH2 0xBF0 DUP2 PUSH2 0x913 JUMP JUMPDEST SWAP2 POP DUP3 DUP3 DIV DUP5 EQ DUP4 ISZERO OR PUSH2 0xC07 JUMPI PUSH2 0xC06 PUSH2 0xB55 JUMP JUMPDEST JUMPDEST POP SWAP3 SWAP2 POP POP JUMP JUMPDEST PUSH1 0x0 PUSH2 0xC19 DUP3 PUSH2 0x913 JUMP JUMPDEST SWAP2 POP PUSH2 0xC24 DUP4 PUSH2 0x913 JUMP JUMPDEST SWAP3 POP DUP3 DUP3 SUB SWAP1 POP DUP2 DUP2 GT ISZERO PUSH2 0xC3C JUMPI PUSH2 0xC3B PUSH2 0xB55 JUMP JUMPDEST JUMPDEST SWAP3 SWAP2 POP POP JUMP INVALID LOG2 PUSH5 0x6970667358 0x22 SLT KECCAK256 SHR EXP 0x2B DUP7 SELFDESTRUCT PUSH12 0xA823E31A4D29B273ED6238A7 0xC2 0xB0 0xD8 0xC5 TIMESTAMP PUSH10 0x2466F410AB5537DB6473 PUSH16 0x6C634300081100330000000000000000 "
		},
		"gasEstimates": {
			"creation": {
				"codeDepositCost": "638400",
				"executionCost": "24912",
				"totalCost": "663312"
			},
			"external": {
				"appendCustomer(uint256,uint256,uint256)": "infinite",
				"appendVehicle(uint256,uint256,uint256,uint256,uint256)": "infinite",
				"buildPairs()": "infinite"
			},
			"internal": {
				"customerValue(uint256,uint256)": "infinite",
				"getCreditUtility(uint256)": "20",
				"getDegree(uint256,uint256)": "22",
				"getMaxOne(uint256[] memory)": "infinite",
				"getSkillUtilty(uint256,uint256)": "infinite",
				"sendRequset(uint256)": "32995",
				"updatePreferenceForCustomers()": "9",
				"updatePreferenceForVehicles()": "infinite",
				"vehicleValue()": "infinite"
			}
		},
		"methodIdentifiers": {
			"appendCustomer(uint256,uint256,uint256)": "f7fcb10d",
			"appendVehicle(uint256,uint256,uint256,uint256,uint256)": "5fe33d80",
			"buildPairs()": "7f9d7f4a"
		}
	},
	"abi": [
		{
			"inputs": [],
			"stateMutability": "payable",
			"type": "constructor"
		},
		{
			"inputs": [
				{
					"internalType": "uint256",
					"name": "_id",
					"type": "uint256"
				},
				{
					"internalType": "uint256",
					"name": "_deductionPerTime",
					"type": "uint256"
				},
				{
					"internalType": "uint256",
					"name": "_drivingAge",
					"type": "uint256"
				}
			],
			"name": "appendCustomer",
			"outputs": [],
			"stateMutability": "nonpayable",
			"type": "function"
		},
		{
			"inputs": [
				{
					"internalType": "uint256",
					"name": "_id",
					"type": "uint256"
				},
				{
					"internalType": "uint256",
					"name": "_price",
					"type": "uint256"
				},
				{
					"internalType": "uint256",
					"name": "_idleTime",
					"type": "uint256"
				},
				{
					"internalType": "uint256",
					"name": "_drivingDistance",
					"type": "uint256"
				},
				{
					"internalType": "uint256",
					"name": "_vehicleValue",
					"type": "uint256"
				}
			],
			"name": "appendVehicle",
			"outputs": [],
			"stateMutability": "nonpayable",
			"type": "function"
		},
		{
			"inputs": [],
			"name": "buildPairs",
			"outputs": [
				{
					"components": [
						{
							"internalType": "uint256",
							"name": "userId",
							"type": "uint256"
						},
						{
							"internalType": "uint256",
							"name": "vehicleId",
							"type": "uint256"
						}
					],
					"internalType": "struct sharing.matchPair[]",
					"name": "",
					"type": "tuple[]"
				}
			],
			"stateMutability": "nonpayable",
			"type": "function"
		}
	]
}